:020000040800F2
:1000000000000220AD9B0008FD9B0008FD9B00083E
:10001000FD9B0008FD9B0008FD9B00080000000000
:10002000000000000000000000000000FD9B000830
:10003000FD9B000800000000FD9B0008298F0008C0
:10004000FD9B0008FD9B0008FD9B0008FD9B000830
:10005000FD9B0008FD9B0008FD9B0008FD9B000820
:10006000FD9B0008FD9B0008FD9B0008FD9B000810
:10007000FD9B0008FD9B0008FD9B0008FD9B000800
:10008000FD9B0008FD9B0008FD9B0008FD9B0008F0
:10009000FD9B0008FD9B0008FD9B0008FD9B0008E0
:1000A000FD9B0008FD9B0008FD9B0008FD9B0008D0
:1000B000FD9B0008FD9B0008FD9B0008FD9B0008C0
:1000C000FD9B0008FD9B0008FD9B0008FD9B0008B0
:1000D000FD9B0008FD9B0008FD9B0008FD9B0008A0
:1000E000FD9B0008FD9B0008FD9B0008398F000860
:1000F000FD9B0008FD9B0008FD9B0008FD9B000880
:10010000FD9B0008FD9B0008FD9B0008FD9B00086F
:10011000FD9B0008FD9B0008558F0008FD9B000813
:10012000FD9B0008FD9B0008FD9B0008FD9B00084F
:10013000FD9B0008FD9B0008FD9B0008FD9B00083F
:10014000FD9B0008FD9B0008FD9B00086D8F0008CB
:10015000FD9B0008FD9B0008FD9B0008FD9B00081F
:10016000FD9B0008FD9B0008FD9B0008FD9B00080F
:10017000FD9B0008FD9B0008FD9B0008000000009F
:08018000FD9B0008FD9B000837
:1001900010B5054C237833B9044B13B10448AFF3C1
:1001A00000800123237010BDE40A0020000000003D
:1001B00070AD000808B5034B1BB103490348AFF30A
:1001C000008008BD00000000E80A002070AD0008B3
:1001D00010F8012B11F8013B012A28BF9A42F7D0F1
:1001E000D01A70470000000000000000000000006E
:1001F00001F0FF01102A2BDB10F0070F08D010F8D8
:10020000013B013A8B422DD010F0070F42B3F6D1DB
:10021000F0B441EA012141EA014122F007047FF0F4
:1002200000070023F0E80256083C85EA010586EA4B
:10023000010685FA47F5A3FA87F586FA47F6A5FA87
:1002400087F68EB9EED1F0BC01F0FF0102F0070293
:1002500032B110F8013B013A83EA010313B1F8D13E
:100260000020704701387047002D06BF354603381F
:10027000073815F0010F07D1013015F4807F02BF58
:10028000013015F4C03F0130F0BC0138704700BFA9
:1002900053B94AB9002908BF00281CBF4FF0FF31ED
:1002A0004FF0FF3000F07AB9ADF1080C6DE904CEE3
:1002B00000F006F8DDF804E0DDE9022304B0704741
:1002C0002DE9F0478C460D460446089E002B51D17F
:1002D0008A4217466DD9B2FA82FEBEF1000F0BD0EA
:1002E000CEF1200C01FA0EF520FA0CFC02FA0EF702
:1002F0004CEA050C00FA0EF44FEA174A250CBCFB39
:10030000FAF81FFA87F90AFB18CC45EA0C4508FBF6
:1003100009F3AB420AD9ED1908F1FF3280F02381CD
:10032000AB4240F22081A8F102083D44ED1AA4B28C
:10033000B5FBFAF00AFB105544EA054400FB09F945
:10034000A14509D9E41900F1FF3380F00A81A145E4
:1003500040F2078102383C44A4EB090440EA08401B
:100360000021002E61D024FA0EF400233460736063
:10037000BDE8F0878B4207D9002E54D0002186E8D3
:1003800021000846BDE8F087B3FA83F1002940F068
:100390008E80AB4202D3824200F2FA80841A65EB6F
:1003A00003050120AC46002E3FD086E81010BDE8C2
:1003B000F08712B90127B7FBF2F7B7FA87FEBEF153
:1003C000000F34D1EB1B3A0C1FFA87FC0121B3FB61
:1003D000F2F8250C02FB183345EA03450CFB08F341
:1003E000AB4207D9ED1908F1FF3002D2AB4200F25F
:1003F000D1808046ED1AA3B2B5FBF2F002FB105596
:1004000043EA05440CFB00FCA44507D9E41900F1BC
:10041000FF3302D2A44500F2B8801846A4EB0C04C6
:1004200040EA08409DE731463046BDE8F087CEF10E
:10043000200405FA0EF307FA0EF720FA04F83A0C36
:1004400025FA04F448EA0308B4FBF2F14FEA184530
:1004500002FB11441FFA87FC45EA044501FB0CF33B
:10046000AB4200FA0EF409D9ED1901F1FF3080F02A
:100470008A80AB4240F2878002393D44EB1A1FFA72
:1004800088F5B3FBF2F002FB103345EA034500FBAD
:100490000CF3AB4207D9ED1900F1FF386FD2AB4234
:1004A0006DD902383D44EB1A40EA01418FE7C1F1B2
:1004B000200722FA07F88B4005FA01F448EA030303
:1004C00020FA07FE4FEA134CFD404EEA040EB5FB3E
:1004D000FCF94FEA1E440CFB19551FFA83F844EA55
:1004E000054509FB08F4AC4202FA01F200FA01FAF0
:1004F00008D9ED1809F1FF3043D2AC4241D9A9F136
:1005000002091D442D1B1FFA8EFEB5FBFCF00CFBEF
:1005100010554EEA054400FB08F8A04507D9E41839
:1005200000F1FF3529D2A04527D902381C4440EA02
:100530000940A4EB0804A0FB02894C45C6464D4681
:1005400015D312D056B1BAEB0E0364EB050404FACE
:1005500007F7CB401F43CC40376074600021BDE8F3
:10056000F0871846F8E69046E0E6C245EAD2B8EBD6
:10057000020E69EB03050138E4E72846D7E7404659
:1005800091E78146BEE7014678E702383C4445E7FB
:10059000084608E7A8F102083D442BE7704700BF72
:1005A00080B500AF0E4A0E4B1B6843F40073136016
:1005B0000B4A0B4B1B6843F480631360084A084BDB
:1005C0001B6843F480731360032000F047F9002098
:1005D00000F008F808F0F2F90023184680BD00BFCB
:1005E000003C024080B582B000AF7860124B1A68C0
:1005F000124B1B7819464FF47A73B3FBF1F3B2FB3D
:10060000F3F3184600F05FF90346002B01D00123F5
:100610000EE07B680F2B0AD8002279684FF0FF307C
:1006200000F027F9064A7B681360002300E00123ED
:1006300018460837BD4680BD380A00200400002057
:100640000000002080B400AF064B1B781A46064B12
:100650001B681344044A136000BFBD465DF8047B69
:10066000704700BF04000020885B002080B400AF0A
:10067000034B1B681846BD465DF8047B704700BFFE
:10068000885B002080B584B000AF7860FFF7EEFF94
:10069000B8607B68FB60FB68B3F1FF3F05D0094B96
:1006A0001B781A46FB681344FB6000BFFFF7DEFFB0
:1006B0000246BB68D21AFB689A42F7D300BF1037D4
:1006C000BD4680BD0400002080B485B000AF7860D6
:1006D0007B6803F00703FB600C4BDB68BB60BA6808
:1006E0004FF6FF031340BB60FB681A02BB6813435D
:1006F00043F0BF6343F40033BB60044ABB68D3607C
:1007000000BF1437BD465DF8047B704700ED00E084
:1007100080B400AF044BDB681B0A03F007031846E4
:10072000BD465DF8047B704700ED00E080B483B007
:1007300000AF0346FB71094997F907305B09FA7965
:1007400002F01F02012000FA02F241F8232000BF4C
:100750000C37BD465DF8047B704700BF00E100E048
:1007600080B483B000AF03463960FB7197F907305E
:10077000002B0BDA0D49FB7903F00F03043B3A68B9
:10078000D2B21201D2B20B441A7609E0084997F9A5
:1007900007303A68D2B21201D2B20B4483F8002378
:1007A00000BF0C37BD465DF8047B704700ED00E0EC
:1007B00000E100E080B489B000AFF860B9607A6011
:1007C000FB6803F00703FB61FB69C3F10703042B1C
:1007D00028BF0423BB61FB690433062B02D9FB69E4
:1007E000033B00E000237B610122BB6902FA03F3B3
:1007F0005A1EBB681A407B699A4001217B6901FA45
:1008000003F3591E7B680B40134318462437BD463B
:100810005DF8047B7047000080B582B000AF78605F
:100820007B68013BB3F1807F01D301230FE00A4ACB
:100830007B68013B53600F214FF0FF30FFF790FFC3
:10084000054B00229A60044B07221A6000231846C9
:100850000837BD4680BD00BF10E000E080B582B023
:1008600000AF78607868FFF72FFF00BF0837BD46FC
:1008700080BD80B586B000AF0346B9607A60FB7377
:1008800000237B61FFF744FF78617A68B968786973
:10089000FFF790FF024697F90F3011461846FFF711
:1008A0005FFF00BF1837BD4680BD80B582B000AF86
:1008B0000346FB7197F907301846FFF737FF00BF73
:1008C0000837BD4680BD80B582B000AF78607868DB
:1008D000FFF7A2FF034618460837BD4680BD00005B
:1008E00080B483B000AF78607B68042B06D1094ADE
:1008F000084B1B6843F00403136005E0054A054BF1
:100900001B6823F00403136000BF0C37BD465DF87D
:10091000047B704710E000E080B500AF00F002F803
:1009200000BF80BD80B400AF00BFBD465DF8047B52
:100930007047000080B489B000AF78603960002350
:100940007B6100233B610023BB610023FB616BE102
:100950000122FB6902FA03F37B613B681A687B6939
:1009600013403B613A697B699A4240F05A813B6887
:100970005B68022B03D03B685B68122B23D1FB69B9
:10098000DA087B68083253F82230BB61FB6903F058
:1009900007039B000F2202FA03F3DB43BA691340FB
:1009A000BB613B681A69FB6903F007039B0002FA0D
:1009B00003F3BA691343BB61FB69DA087B68083249
:1009C000B96943F822107B681B68BB61FB695B0057
:1009D000032202FA03F3DB43BA691340BB613B68AD
:1009E0005B6803F00302FB695B0002FA03F3BA6978
:1009F0001343BB617B68BA691A603B685B68012B73
:100A00000BD03B685B68022B07D03B685B68112BFF
:100A100003D03B685B68122B30D17B689B68BB615D
:100A2000FB695B00032202FA03F3DB43BA6913405C
:100A3000BB613B68DA68FB695B0002FA03F3BA69E1
:100A40001343BB617B68BA699A607B685B68BB6172
:100A50000122FB6902FA03F3DB43BA691340BB616D
:100A60003B685B681B0903F00102FB6902FA03F3B0
:100A7000BA691343BB617B68BA695A607B68DB68FB
:100A8000BB61FB695B00032202FA03F3DB43BA6933
:100A90001340BB613B689A68FB695B0002FA03F391
:100AA000BA691343BB617B68BA69DA603B685B680B
:100AB00003F08053002B00F0B4800023FB605F4AFA
:100AC0005E4B5B6C43F4804353645C4B5B6C03F4A0
:100AD0008043FB60FB685A4AFB699B08023352F86B
:100AE0002330BB61FB6903F003039B000F2202FA72
:100AF00003F3DB43BA691340BB617B68514A9342FD
:100B00002BD07B68504A934225D07B684F4A934252
:100B10001FD07B684E4A934219D07B684D4A93425E
:100B200013D07B684C4A93420DD07B684B4A93426A
:100B300007D07B684A4A934201D107230EE008237D
:100B40000CE006230AE0052308E0042306E0032363
:100B500004E0022302E0012300E00023FA6902F02E
:100B6000030292009340BA691343BB613449FB69A5
:100B70009B080233BA6941F823203A4B1B68BB61DA
:100B80003B69DB43BA691340BB613B685B6803F4B4
:100B90008033002B03D0BA693B691343BB61314AF0
:100BA000BB6913602F4B5B68BB613B69DB43BA6970
:100BB0001340BB613B685B6803F40033002B03D038
:100BC000BA693B691343BB61264ABB695360254B35
:100BD0009B68BB613B69DB43BA691340BB613B68FF
:100BE0005B6803F48013002B03D0BA693B6913439D
:100BF000BB611C4ABB6993601A4BDB68BB613B69F4
:100C0000DB43BA691340BB613B685B6803F40013C4
:100C1000002B03D0BA693B691343BB61114ABB691E
:100C2000D360FB690133FB61FB690F2B7FF690AE4C
:100C300000BF2437BD465DF8047B70470038024092
:100C40000038014000000240000402400008024059
:100C5000000C024000100240001402400018024044
:100C6000001C0240003C014080B483B000AF7860BB
:100C70000B467B8013467B707B78002B03D07A88F1
:100C80007B689A6103E07B881A047B689A6100BFE5
:100C90000C37BD465DF8047B7047000080B584B01A
:100CA00000AF78600023FB600023BB607B68002BF3
:100CB00001D10123C8E07B6893F83D30DBB2002B03
:100CC00006D17B68002283F83C20786807F0C8FED4
:100CD0007B68242283F83D207B681B687A68126851
:100CE000126822F001021A6002F052FAB860BB6882
:100CF000574AA2FB03239B0CFB607B681B68FA68C6
:100D00005A607B681A687B685B6852498B4202D8DC
:100D1000FB68013309E0FB684FF4967101FB03F3B4
:100D20004D49A1FB03139B09013313627B681968CA
:100D30007B685B68474A934212D87B685B685B00BC
:100D4000BA68B2FBF3F3C3F30B03032B06D97B683A
:100D50005B685B00BA68B2FBF3F345E0042343E051
:100D60007B689B68002B0FD17B685A6813465B0039
:100D70001344BA68B2FBF3F3C3F30B03002B0CBFAD
:100D800001230023DBB210E07B685A6813469B0006
:100D900013449A001344BA68B2FBF3F3C3F30B0392
:100DA000002B0CBF01230023DBB2002B01D0012359
:100DB0001AE07B689B68002B0AD17B685A6813464F
:100DC0005B001344BA68B2FBF3F343F400430BE057
:100DD0007B685A6813469B0013449A001344BA6810
:100DE000B2FBF3F343F44043CB617B681B687A6842
:100DF000D1697A68126A0A431A607B681B687A684C
:100E000011697A68D2680A439A607B681B687A68BD
:100E100051697A6892690A43DA607B681B687A686C
:100E20001268126842F001021A607B6800221A649C
:100E30007B68202283F83D207B6800221A637B6850
:100E4000002283F83E20002318461037BD4680BD9F
:100E500083DE1B43A0860100D34D621080B588B0AD
:100E600000AF78600023FB600223FB610023BB61BD
:100E700010237B6100233B610023BB607B68002B58
:100E800001D101232BE17B68022283F841207B689A
:100E9000954A5A63786807F015FE7B681A687B6884
:100EA0001B68DB6923F47B6323F00F03D3617B684A
:100EB0001B6802221A627B681B68DB69FB607B6827
:100EC0005B69022B61D07B68DB68002B02D020239A
:100ED0007B6101E010237B617B689B68202B02D83B
:100EE0007B695B007B61012002F048FAB8607B6897
:100EF0001B69B3F5007F25D17B68DB68002B10D020
:100F00007B699B00BA68B2FBF3F213469B00134463
:100F10005B001A467B685B69B2FBF3F305333B6108
:100F20001FE07B69DB00BA68B2FBF3F213469B005B
:100F300013445B001A467B685B69B2FBF3F305332D
:100F40003B610EE0BA687B69B2FBF3F213469B008B
:100F500013445B001A467B685B69B2FBF3F305330D
:100F60003B613B69614AA2FB0323DB083B613B69B0
:100F70009BB203F00103BB613A69BB69D31A5B08FA
:100F80009BB2FB61BB691B02BB61FB69012B02D9F0
:100F9000FB69FF2B0ED90223FB610023BB617B6839
:100FA0005B6C43F010027B685A64786800F0BAF812
:100FB000012394E07B681B687A681169BA69114360
:100FC000FA690A431A627B685B689AB27B689B681D
:100FD00099B27B68DB6898B27B689B699BB20343DC
:100FE0009BB20B439BB213439BB243F400639BB28F
:100FF0001A46FB681343FB607B681B68FA68DA617A
:101000007B681B6A012B62D17B68394A5A637B6813
:101010001B68384A934201D1374A01E04FF0402221
:101020007B681B6833498B4201D1334B01E04FF0A1
:101030004023DB6923F47B6323F00F03D3617B68D8
:101040001B682C4A934201D12B4B01E04FF0402307
:1010500002221A627B681B68264A934201D1264B02
:1010600001E04FF04023DB69FB607B685B68B3F510
:10107000007F03D07B685B68002B03D14FF4807343
:101080003B6101E000233B613B699AB27B689B684E
:1010900099B27B68DB6898B27B689B699BB203431B
:1010A0009BB20B439BB213439BB243F400639BB2CE
:1010B0001A46FB681343FB607B681B680D4A93422A
:1010C00001D10D4B01E04FF04023FA68DA617B68F3
:1010D00000225A647B68012283F8412000231846CD
:1010E0002037BD4680BD00BFEF110008CDCCCCCC71
:1010F00009130008003800400034004080B483B079
:1011000000AF786000BF0C37BD465DF8047B7047C8
:1011100080B483B000AF786000BF0C37BD465DF887
:10112000047B704780B483B000AF786000BF0C3799
:10113000BD465DF8047B704780B582B000AF786033
:101140007B681A687B685B6A981C796848621B88B0
:10115000D3607B685B8D9BB2013B9AB27B685A85FA
:101160007B685B8D9BB2002B0FD17B681A687B6814
:101170001B6859684FF65F730B4053607B68012210
:1011800083F841207868FFF7B9FF00BF0837BD46F4
:1011900080BD80B582B000AF78607B68DB6A991C47
:1011A0007A68D1627A681268D26892B21A807B68D3
:1011B0005B8E9BB2013B9AB27B685A867B685B8EE2
:1011C0009BB2002B0FD17B681A687B681B6859683B
:1011D0004FF69F730B4053607B68012283F84120D8
:1011E0007868FFF795FF00BF0837BD4680BD80B522
:1011F00086B000AF78607B681B689B687B617B680A
:1012000093F84130DBB2042B3BD17B6903F001033F
:10121000012B09D17B681B685B6803F04003402BFE
:1012200002D17868FFF7B5FF7B6903F04003402BDC
:1012300027D17B681B685B6803F02003202B20D13B
:101240007B681A687B681B6859684FF69F730B4070
:10125000536000233B617B681B68DB683B617B68F4
:101260001B689B683B613B697B68012283F84120D6
:101270007B685B6C43F002027B685A647868FFF716
:1012800051FF7B6893F84130DBB2032B37D17B6988
:1012900003F00203022B09D17B681B685B6803F033
:1012A0008003802B02D17868FFF746FF7B6903F04B
:1012B0000803082B23D17B681B685B6803F02003BD
:1012C000202B1CD17B681A687B681B6859684FF615
:1012D0005F730B4053600023FB607B681B689B6857
:1012E000FB60FB687B68012283F841207B685B6CB4
:1012F00043F004027B685A647868FFF713FF00BF6D
:101300001837BD4680BD000080B586B000AF78605C
:101310007B681B689B687B617B681B68A24A934261
:1013200001D1A24B01E04FF040239B683B617B68F9
:101330001B68DB6903F44073B3F5007F07D07B685B
:101340001B68DB6903F44073002B40F0B3807B69BA
:1013500003F00203022B0AD17B681B685B6803F071
:101360008003802B03D10021786800F05BF93B6992
:1013700003F00103012B11D17B681B688A4A934259
:1013800001D18A4B01E04FF040235B6803F040033A
:10139000402B03D10121786800F0BEF93B6903F0CE
:1013A0004003402B44D17B681B687F4A934201D1A4
:1013B0007E4B01E04FF040235B6803F02003202BBD
:1013C00036D17B681B68784A934201D1774B01E0A4
:1013D0004FF040237A68126873498A4201D1734AF8
:1013E00001E04FF04022526822F060025A607B68B0
:1013F0001A687B681B6859684FF65F730B4053602F
:101400000023FB607B681B68DB68FB607B681B68F4
:101410009B68FB60FB687B68012283F841207B6846
:101420005B6C43F002027B685A647868FFF77AFECF
:101430007B6903F00803082B40F0E0807B681B68A1
:101440005B6803F02003202B40F0D8807B681A688B
:101450007B681B6859684FF65F730B4053607B686D
:101460001B68514A934201D1504B01E04FF0402399
:101470007A6812684C498A4201D14C4A01E04FF027
:101480004022526822F060025A600023BB607B68F1
:101490001B689B68BB60BB687B68012283F84120A6
:1014A0007B685B6C43F004027B685A647868FFF7E2
:1014B00039FEA3E03B6903F00203022B11D17B68E4
:1014C0001B68394A934201D1384B01E04FF0402369
:1014D0005B6803F08003802B03D10121786800F062
:1014E000A1F87B6903F00103012B0AD17B681B681B
:1014F0005B6803F04003402B03D10021786800F0C3
:101500000BF97B6903F04003402B32D17B681B68E9
:101510005B6803F02003202B2BD17B681A687B6863
:101520001B6859684FF69F730B4053607B681B68BC
:101530001D4A934201D11D4B01E04FF040237A68D0
:10154000126819498A4201D1184A01E04FF040223D
:10155000526822F0A0025A607B68012283F8412081
:101560007B685B6C43F002027B685A647868FFF723
:10157000D9FD3B6903F00803082B40D17B681B6849
:10158000094A934201D1094B01E04FF040235B68C7
:1015900003F02003202B32D17B681B68024A934260
:1015A00006D1024B06E000BF003800400034004086
:1015B0004FF040237A68126813498A4201D1134AD6
:1015C00001E04FF04022526822F0A0025A607B688E
:1015D0001A687B681B6859684FF69F730B4053600D
:1015E0007B68012283F841207B685B6C43F0040236
:1015F0007B685A647868FFF795FD00E000BF00BF84
:101600001837BD4680BD00BF0038004000340040A0
:1016100080B483B000AF786000BF0C37BD465DF882
:10162000047B704780B582B000AF78600B46FB70DA
:10163000FB78002B2AD17B681A687B685B6A981C50
:10164000796848621B88D3607B685B8D9BB2013BE5
:101650009AB27B685A857B685B8D9BB2002B53D115
:101660007B681A687B681B6859684FF65F730B408C
:1016700053607B685B8E9BB2002B45D17B68012257
:1016800083F841207868FFF7C3FF3DE07B681B6863
:101690001F4A934201D11F4A01E04FF040227B686C
:1016A0005B6A981C796848621B88D3607B685B8D95
:1016B0009BB2013B9AB27B685A857B685B8D9BB27B
:1016C000002B21D17B681B68114A934201D1114B39
:1016D00001E04FF040237A6812680D498A4201D137
:1016E0000C4A01E04FF04022526822F0A0025A60FA
:1016F0007B685B8E9BB2002B06D17B68012283F84E
:1017000041207868FFF784FF00BF0837BD4680BDE1
:10171000003800400034004080B582B000AF7860EF
:101720000B46FB70FB78002B2BD17B68DB6A991C86
:101730007A68D1627A681268D26892B21A807B683D
:101740005B8E9BB2013B9AB27B685A867B685B8E4C
:101750009BB2002B54D17B681A687B681B68596860
:101760004FF69F730B4053607B685B8D9BB2002BE1
:1017700046D17B68012283F841207868FFF748FF53
:101780003EE07B68DB6A991C7A68D1627A681268ED
:101790001D498A4201D11D4A01E04FF04022D26822
:1017A00092B21A807B685B8E9BB2013B9AB27B68D7
:1017B0005A867B685B8E9BB2002B21D17B681B68AD
:1017C000114A934201D1114B01E04FF040237A6856
:1017D00012680D498A4201D10C4A01E04FF04022C3
:1017E000526822F060025A607B685B8D9BB2002BCE
:1017F00006D17B68012283F841207868FFF708FF53
:1018000000BF0837BD4680BD0038004000340040AE
:10181000F0B58FB00AAF78600023FB607B68002BC7
:1018200001D10123F7E07B68032283F8B9237868AC
:1018300007F0C2FC7B681B68184602F04AFE7B6812
:101840001B683B607E686D4606F110040FCC0FC527
:101850000FCC0FC594E8030085E80300331D0ECBC1
:10186000386802F0D4FD7B681B680021184602F03E
:1018700041FE0023FB604CE07968FA681346DB0008
:101880009B1A9B000B44393301221A70FB68D8B2B3
:101890007968FA681346DB009B1A9B000B443833C7
:1018A00002461A70FB6898B27968FA681346DB0042
:1018B0009B1A9B000B443E3302461A807968FA68F3
:1018C0001346DB009B1A9B000B443B3300221A702B
:1018D0007968FA681346DB009B1A9B000B4440337F
:1018E00000221A607968FA681346DB009B1A9B0095
:1018F0000B44443300221A607968FA681346DB000F
:101900009B1A9B000B444C3300221A60FB68013386
:10191000FB60FB680E2BAFD90023FB605AE07968AF
:10192000FA681346DB009B1A9B000B4403F2F91381
:1019300000221A70FB68D8B27968FA681346DB0097
:101940009B1A9B000B4403F5FC7302461A70FB685C
:1019500098B27968FA681346DB009B1A9B000B4427
:101960003E3302461A807968FA681346DB009B1AF8
:101970009B000B4403F2FB1300221A707968FA688B
:101980001346DB009B1A9B000B4403F500730022F7
:101990001A607968FA681346DB009B1A9B000B44B7
:1019A00003F5017300221A607968FA681346DB00B8
:1019B0009B1A9B000B4403F5037300221A607B689B
:1019C0001A68FB6840339B00134400225A60FB688E
:1019D0000133FB60FB680E2BA1D97B681B683B6061
:1019E0007E686D4606F110040FCC0FC50FCC0FC5F5
:1019F00094E8030085E80300331D0ECB386802F03D
:101A0000A1FD7B68012283F8B9237B681B68184617
:101A100003F0C2FD002318461437BD46F0BD80B563
:101A200082B000AF78607B6893F8B833012B01D1A6
:101A3000022312E07B68012283F8B8237B681B68CD
:101A4000184603F092FD7B681B68184602F030FDD3
:101A50007B68002283F8B823002318460837BD4668
:101A600080BD000080B58CB000AF78607B681B68DB
:101A70003B620023FB620023BB620023FB61002367
:101A80007B620023BB6100237B617C4B3B617B68F5
:101A90001B68184603F022FE0346002B40F06884C2
:101AA0007B681B68184603F08EFD0346002B00F090
:101AB0005E847B681B68184603F085FD034603F0CF
:101AC0000203022B07D17B681B687A68126852698F
:101AD00002F002025A617B681B68184603F073FD2E
:101AE000034603F40023B3F5002F40F0B280002337
:101AF0007B627B681B68184603F07AFDB862A4E03D
:101B0000BB6A03F00103002B00F099807B681B681F
:101B10007A6AD2B21146184603F09AFDF861FB6961
:101B200003F00103002B6BD07B6A5A013B6A13441C
:101B300003F530631A46012393607B681B69012B10
:101B40003CD179687A6A1346DB009B1A9B000B44F0
:101B500003F500731A687B6A59013B6A0B4403F56D
:101B600030631B69C3F31203D11A78687A6A13468B
:101B7000DB009B1A9B00034403F50473196079682A
:101B80007A6A1346DB009B1A9B000B4403F5017332
:101B9000196878687A6A1346DB009B1A9B00034435
:101BA00003F500731B68194478687A6A1346DB00F2
:101BB0009B1A9B00034403F5017319607B6ADBB237
:101BC0001946786807F056FB7B681B69012B17D113
:101BD0007B6A002B14D179687A6A1346DB009B1A62
:101BE0009B000B4403F503731B68002B08D17B6833
:101BF00018687B6803F56F731A46012103F0B2FD84
:101C0000FB6903F00803002B0BD0786807F020FB7A
:101C10007B6A5A013B6A134403F530631A46082372
:101C20009360FB6903F01003002B08D07B6A5A0114
:101C30003B6A134403F530631A46102393607B6AB2
:101C400001337B62BB6A5B08BB62BB6A002B7FF41B
:101C500057AF7B681B68184603F0B5FC034603F4D6
:101C60008023B3F5802F40F0C5807B681B68184641
:101C700003F0D6FCB86200237B62B7E00095BA0A95
:101C8000BB6A03F00103002B00F0AA807B681B688D
:101C90007A6AD2B21146184603F0F6FCF861FB6985
:101CA00003F00103002B5AD001227B6A02FA03F3EE
:101CB000BB613B6A03F5006319463B6A03F50063A9
:101CC0005A6BBB69DB4313404B637B6A5A013B6A27
:101CD000134403F510631A46012393607B681B6964
:101CE000012B1BD179687A6A1346DB009B1A9B0093
:101CF0000B444433196878687A6A1346DB009B1AF0
:101D00009B00034440331B68194478687A6A134681
:101D1000DB009B1A9B000344443319607B6ADBB2EF
:101D20001946786807F0C1FA7B681B69012B16D148
:101D30007B6A002B13D179687A6A1346DB009B1A01
:101D40009B000B444C331B68002B08D17B68186840
:101D50007B6803F56F731A46012103F003FDFB69ED
:101D600003F00803002B08D07B6A5A013B6A134436
:101D700003F510631A4608239360FB6903F0100310
:101D8000002B08D07B6A5A013B6A134403F51063A9
:101D90001A4610239360FB6903F04003002B08D020
:101DA0007B6A5A013B6A134403F510631A464023C9
:101DB0009360FB6903F00203002B08D07B6A5A0191
:101DC0003B6A134403F510631A4602239360FB69D0
:101DD00003F08003002B03D0796A786800F0F1FCEF
:101DE0007B6A01337B62BB6A5B08BB62BB6A002B08
:101DF0007FF446AF7B681B68184603F0E4FB03469C
:101E000003F00043B3F1004F15D13B6A03F50063C3
:101E10001A463B6A03F500635B6823F001035360D5
:101E2000786807F0BBFA7B681B687A6812685269A9
:101E300002F000425A617B681B68184603F0C3FB3E
:101E4000034603F40063B3F5006F12D13B6A03F558
:101E500000639B6803F00103012B02D1786807F04F
:101E600075FA7B681B687A681268526902F400622E
:101E70005A617B681B68184603F0A5FB034603F410
:101E80008053B3F5805F40F091803B6A03F50063B7
:101E90001A463B6A03F500635B6823F00103536055
:101EA0007B681B681021184602F07EFC0023FB6251
:101EB00014E0FB6A5A013B6A134403F510631A46A7
:101EC000FF239360FB6A5A013B6A134403F53063B6
:101ED0001A46FF239360FB6A0133FB627B685A68F2
:101EE000FB6A9A42E5D83B6A03F500631A464FF055
:101EF000FF3393613B6A03F500631A463B6A03F5BF
:101F00000063DB6943F00113D3617B681B6B002B1B
:101F100018D03B6A03F500631A463B6A03F5006379
:101F2000D3F8843043F00B03C2F884303B6A03F5E6
:101F300000631A463B6A03F500635B6C43F00B03D6
:101F4000536415E03B6A03F500631A463B6A03F5E8
:101F500000635B6943F00B0353613B6A03F5006365
:101F60001A463B6A03F500631B6943F00B031361D8
:101F70003B6A03F500631A463B6A03F500631B687E
:101F800023F4FE6313607B6818687B681B69D9B211
:101F90007B6803F56F731A4603F0E4FB7B681B68EC
:101FA0007A681268526902F480525A617B681B6831
:101FB000184603F008FB034603F40053B3F5005F33
:101FC00040F0DA807B681B68184603F095FB7B685D
:101FD0001B687A681268D26822F47052DA607B68F3
:101FE0001B68184602F040FC0346002B0FD17B68AB
:101FF0000022DA607B684FF400725A617B681B68CC
:102000007A681268D26842F41052DA60A9E07B68FC
:102010000322DA607B6840225A6101F0ADF8386132
:102020003B697B4A93420CD93B697A4A934208D870
:102030007B681B687A681268D26842F47052DA6072
:102040008FE03B69734A93420CD93B69724A9342D1
:1020500008D87B681B687A681268D26842F46052BC
:10206000DA607EE03B696C4A93420CD93B696B4A6B
:10207000934208D87B681B687A681268D26842F479
:102080005052DA606DE03B69644A93420CD93B6977
:10209000634A934208D87B681B687A681268D268E2
:1020A00042F44052DA605CE03B695D4A93420CD9ED
:1020B0003B695C4A934208D87B681B687A6812685F
:1020C000D26842F43052DA604BE03B69554A9342A1
:1020D0000CD93B69544A934208D87B681B687A68DC
:1020E0001268D26842F42052DA603AE03B694E4A04
:1020F00093420CD93B694D4A934208D87B681B68D0
:102100007A681268D26842F41052DA6029E03B69BA
:10211000464A93420CD93B69454A934208D87B68AA
:102120001B687A681268D26842F40052DA6018E0DC
:102130003B693F4A93420CD93B693E4A934208D8D7
:102140007B681B687A681268D26842F4E052DA60F1
:1021500007E07B681B687A681268D26842F4C05254
:10216000DA60786807F0C9F87B681B687A681268DB
:10217000526902F400525A617B681B68184603F0EA
:1021800022FA034603F01003102B74D17B681B68FE
:102190007A681268926922F010029A613B6A1B6A9F
:1021A0007B617B6903F00F021346DB009B1A9B00E7
:1021B00003F5FC737A681344FB607B695B0C03F0E6
:1021C0000F03022B38D17A6947F6F0731340002BC6
:1021D00049D0FB68D9687B691B099BB2C3F30A032A
:1021E0009BB21A46386A03F095F8FB68DA687B6997
:1021F0001B09C3F30A031A44FB68DA60FB689A6997
:102200007B691B09C3F30A031A44FB689A612AE03D
:10221000BFACD800BFE1E400FF23F4007F730601E8
:102220009F491A01FF2C31013FA44C01FF356E017B
:102230001FABA601FF47E8017B695B0C03F00F03AE
:10224000062B10D17B6803F56F7308221946386A94
:1022500003F060F8FB689A697B691B09C3F30A0302
:102260001A44FB689A617B681B687A6812689269F5
:1022700042F010029A617B681B68184603F0A3F9CC
:10228000034603F00803082B0AD1786807F027F803
:102290007B681B687A681268526902F008025A610A
:1022A0007B681B68184603F08EF9034603F480131D
:1022B000B3F5801F0DD17B6ADBB21946786807F051
:1022C0008DF87B681B687A681268526902F4801284
:1022D0005A617B681B68184603F075F9034603F4DE
:1022E0000013B3F5001F0DD17B6ADBB21946786885
:1022F00007F062F87B681B687A681268526902F41A
:1023000000125A617B681B68184603F05CF90346AB
:1023100003F08043B3F1804F0AD1786807F070F87A
:102320007B681B687A681268526902F080425A61C1
:102330007B681B68184603F046F9034603F0040364
:10234000042B15D17B681B685B687B617B6903F09C
:102350000403002B02D0786807F060F87B681B68E4
:102360007A68126851687A690A435A6000E000BFCF
:102370003037BD4680BD00BF80B582B000AF786009
:102380000B46FB707B6893F8B833012B01D1022315
:102390000FE07B68012283F8B8237B681B68FA781A
:1023A0001146184603F0BBF87B68002283F8B82377
:1023B000002318460837BD4680BD80B584B000AF05
:1023C0007860084611461A460346FB700B463B8070
:1023D0001346BB700023FB7297F90330002B0BDA16
:1023E000FB7803F07F021346DB009B1A9B00383317
:1023F0007A681344FB600BE0FB7803F07F0213461E
:10240000DB009B1A9B0003F5FC737A681344FB60A6
:10241000FB7803F07F03DAB2FB681A7097F9033098
:10242000DBB2DB09DBB21A46FB685A703A88FB68FC
:102430009A60FB68BA78DA70FB685B78002B04D08E
:10244000FB681B789AB2FB68DA80BB78022B02D15A
:10245000FB6800221A717B6893F8B833012B01D115
:1024600002230EE07B68012283F8B8237B681B6897
:10247000F968184602F02DFA7B68002283F8B82329
:10248000FB7A18461037BD4680BD80B584B000AFDA
:1024900078600B46FB7097F90330002B0BDAFB7862
:1024A00003F07F021346DB009B1A9B0038337A68E7
:1024B0001344FB600BE0FB7803F07F021346DB0064
:1024C0009B1A9B0003F5FC737A681344FB60FB784E
:1024D00003F07F03DAB2FB681A7097F90330DBB2BE
:1024E000DB09DBB21A46FB685A707B6893F8B83395
:1024F000012B01D102230EE07B68012283F8B8236F
:102500007B681B68F968184602F06CFA7B68002249
:1025100083F8B823002318461037BD4680BD80B528
:1025200086B000AFF8607A603B600B46FB72FB7AC6
:1025300003F07F021346DB009B1A9B0003F5FC733C
:10254000FA6813447B617B697A68DA607B693A6870
:102550005A617B6900229A617B6900225A70FB7A7A
:1025600003F07F03DAB27B691A70FB681B69012BE9
:1025700002D17A687B691A61FB7A03F07F03002B32
:1025800009D1FB681868FB681B69DBB21A467969D8
:1025900002F02CFD08E0FB681868FB681B69DBB2E1
:1025A0001A46796902F0E0FA002318461837BD464A
:1025B00080BD80B483B000AF78600B46FB70FB78C1
:1025C00003F00F0279681346DB009B1A9B000B4453
:1025D00003F504731B689BB218460C37BD465DF8C3
:1025E000047B704780B586B000AFF8607A603B60CE
:1025F0000B46FB72FB7A03F07F021346DB009B1A4B
:102600009B003833FA6813447B617B697A68DA602F
:102610007B693A685A617B6900229A617B69012271
:102620005A70FB7A03F07F03DAB27B691A70FB6899
:102630001B69012B02D17A687B691A61FB7A03F06E
:102640007F03002B09D1FB681868FB681B69DBB2AC
:102650001A46796902F0CAFC08E0FB681868FB6852
:102660001B69DBB21A46796902F07EFA002318462C
:102670001837BD4680BD80B584B000AF78600B468A
:10268000FB7097F90330002B0BDAFB7803F07F0225
:102690001346DB009B1A9B0038337A681344FB60B7
:1026A00009E0FA781346DB009B1A9B0003F5FC73E4
:1026B0007A681344FB60FB6801229A70FB7803F090
:1026C0007F03DAB2FB681A7097F90330DBB2DB09DB
:1026D000DBB21A46FB685A707B6893F8B833012B5B
:1026E00001D102231EE07B68012283F8B8237B68B6
:1026F0001B68F968184602F034FEFB7803F07F038C
:10270000002B0AD17B6818687B681B69D9B27B688B
:1027100003F56F731A4603F025F87B68002283F8EF
:10272000B823002318461037BD4680BD80B584B05D
:1027300000AF78600B46FB7097F90330002B0BDA83
:10274000FB7803F07F021346DB009B1A9B003833B3
:102750007A681344FB6009E0FA781346DB009B1AA1
:102760009B0003F5FC737A681344FB60FB6800224E
:102770009A70FB7803F07F03DAB2FB681A7097F95E
:102780000330DBB2DB09DBB21A46FB685A707B68A8
:1027900093F8B833012B01D102230EE07B680122AC
:1027A00083F8B8237B681B68F968184602F04AFE74
:1027B0007B68002283F8B823002318461037BD46F3
:1027C00080BD80B58AB002AF786039607B681B68D5
:1027D0007B610023FB6100233B613A681346DB0009
:1027E0009B1A9B0038337A681344FB60FB685A6974
:1027F000FB689B69D31AFB61FB689A68FB699A4284
:1028000002D2FB689B68FB61FB6903339B08BB61D9
:102810002BE0FB685A69FB689B69D31AFB61FB6874
:102820009A68FB699A4202D2FB689B68FB61FB696C
:1028300003339B08BB61FB68D9683B68DAB2FB696C
:1028400098B27B681B69DBB200930346786902F09B
:102850002CFDFB68DA68FB691A44FB68DA60FB68E8
:102860009A69FB691A44FB689A613B685A017B6963
:10287000134403F510639B699AB2BB699A4209D964
:10288000FB689A69FB685B699A4203D2FB685B69E3
:10289000002BBED1FB69002B10D101223B6802FA4C
:1028A00003F33B617B6903F5006319467B6903F51C
:1028B00000635A6B3B69DB4313404B6300231846AC
:1028C0002037BD4680BD80B485B000AF78600B4630
:1028D000FB7013463B800023FB730023BB607B68C7
:1028E0001B685B6ABB60FB78002B07D17B681B68A9
:1028F0003A881104BA680A439A6228E07B681B6828
:102900009B6A1B0CBA681344BB600023FB730DE089
:102910007B681A68FB7B40339B0013445B681B0C8D
:10292000BA681344BB60FB7B0133FB73FA7BFB7813
:10293000013B9A42ECDB7B681968FB78013B3A88E3
:102940001004BA68024340339B000B445A600023D2
:1029500018461437BD465DF8047B704780B483B0D9
:1029600000AF78600B467B807B681B687A885A6270
:10297000002318460C37BD465DF8047B7047000005
:1029800080B586B000AF78607B68002B01D1012351
:102990002DE27B681B6803F00103002B75D0A34B6D
:1029A0009B6803F00C03042B0CD0A04B9B6803F036
:1029B0000C03082B12D19D4B5B6803F48003B3F525
:1029C000800F0BD1994B1B6803F40033002B5BD0B5
:1029D0007B685B68002B57D1012308E27B685B684A
:1029E000B3F5803F06D1914A904B1B6843F4803386
:1029F00013601DE07B685B68B3F5A02F0CD18B4A98
:102A00008A4B1B6843F480231360884A874B1B68FA
:102A100043F4803313600BE0844A844B1B6823F437
:102A200080331360814A814B1B6823F48023136039
:102A30007B685B68002B13D0FDF718FE386108E057
:102A4000FDF714FE02463B69D31A642B01D9032318
:102A5000CDE1764B1B6803F40033002BF0D014E07B
:102A6000FDF704FE386108E0FDF700FE02463B6911
:102A7000D31A642B01D90323B9E16C4B1B6803F40F
:102A80000033002BF0D100E000BF7B681B6803F02F
:102A90000203002B63D0654B9B6803F00C03002BF3
:102AA0000BD0624B9B6803F00C03082B1CD15F4BCF
:102AB0005B6803F48003002B16D15C4B1B6803F0AA
:102AC0000203002B05D07B68DB68012B01D00123BA
:102AD0008DE15649554B1B6823F0F8027B681B6952
:102AE000DB0013430B603AE07B68DB68002B20D0EF
:102AF0004F4B01221A60FDF7B9FD386108E0FDF780
:102B0000B5FD02463B69D31A022B01D903236EE1BE
:102B1000464B1B6803F00203002BF0D04349434BA4
:102B20001B6823F0F8027B681B69DB0013430B6012
:102B300015E03F4B00221A60FDF798FD386108E070
:102B4000FDF794FD02463B69D31A022B01D90323FA
:102B50004DE1364B1B6803F00203002BF0D17B687C
:102B60001B6803F00803002B30D07B685B69002BE7
:102B700016D0304B01221A60FDF778FD386108E06D
:102B8000FDF774FD02463B69D31A022B01D90323DA
:102B90002DE1264B5B6F03F00203002BF0D015E014
:102BA000244B00221A60FDF761FD386108E0FDF753
:102BB0005DFD02463B69D31A022B01D9032316E1BE
:102BC0001A4B5B6F03F00203002BF0D17B681B688C
:102BD00003F00403002B00F0A0800023FB75134BCF
:102BE0001B6C03F08053002B0FD10023FB600F4AB6
:102BF0000E4B1B6C43F0805313640C4B1B6C03F0A7
:102C00008053FB60FB680123FB750B4B1B6803F4CF
:102C10008073002B21D1084A074B1B6843F4807353
:102C20001360FDF723FD386111E000BF003802405A
:102C300000004742800E474200700040FDF716FD3D
:102C400002463B69D31A022B01D90323CFE06A4B1A
:102C50001B6803F48073002BF0D07B689B68012B0A
:102C600006D1664A654B1B6F43F0010313671CE0F6
:102C70007B689B68052B0CD1604A604B1B6F43F04F
:102C8000040313675D4A5D4B1B6F43F00103136739
:102C90000BE05A4A594B1B6F23F001031367574A45
:102CA000564B1B6F23F0040313677B689B68002B54
:102CB00015D0FDF7DBFC38610AE0FDF7D7FC0246D2
:102CC0003B69D31A41F28832934201D903238EE043
:102CD0004A4B1B6F03F00203002BEED014E0FDF70C
:102CE000C5FC38610AE0FDF7C1FC02463B69D31A16
:102CF00041F28832934201D9032378E03F4B1B6FA6
:102D000003F00203002BEED1FB7D012B05D13B4AE2
:102D10003A4B1B6C23F0805313647B689B69002B38
:102D200064D0364B9B6803F00C03082B5CD07B68A7
:102D30009B69022B41D1324B00221A60FDF796FCB1
:102D4000386108E0FDF792FC02463B69D31A022B7A
:102D500001D903234BE0294B1B6803F00073002BC0
:102D6000F0D126497B68DA697B681B6A1A437B6865
:102D70005B6A9B011A437B689B6A5B08013B1B04EF
:102D80001A437B68DB6A1B0613434B601C4B012212
:102D90001A60FDF76BFC386108E0FDF767FC02463E
:102DA0003B69D31A022B01D9032320E0134B1B6884
:102DB00003F00073002BF0D018E0114B00221A60D2
:102DC000FDF754FC386108E0FDF750FC02463B6912
:102DD000D31A022B01D9032309E0084B1B6803F027
:102DE0000073002BF0D101E0012300E0002318461E
:102DF0001837BD4680BD00BF00700040003802405B
:102E00006000474280B584B000AF786039607B686D
:102E1000002B01D10123CAE0674B1B6803F00F02AE
:102E20003B689A420CD2644B3A68D2B21A70624B39
:102E30001B6803F00F023B689A4201D00123B6E001
:102E40007B681B6803F00203002B20D07B681B68A3
:102E500003F00403002B05D0584A584B9B6843F4F9
:102E6000E05393607B681B6803F00803002B05D0D8
:102E7000524A524B9B6843F4604393604F494F4B17
:102E80009B6823F0F0027B689B6813438B607B6830
:102E90001B6803F00103002B44D07B685B68012BA7
:102EA00007D1464B1B6803F40033002B19D10123D3
:102EB0007DE07B685B68022B03D07B685B68032B3B
:102EC00007D13E4B1B6803F00073002B09D101238F
:102ED0006DE03A4B1B6803F00203002B01D1012384
:102EE00065E03649354B9B6823F003027B685B68DD
:102EF00013438B60FDF7BAFBF8600AE0FDF7B6FB01
:102F00000246FB68D31A41F28832934201D9032367
:102F10004DE02A4B9B6803F00C027B685B689B00CA
:102F20009A42EBD1244B1B6803F00F023B689A4294
:102F30000CD9214B3A68D2B21A701F4B1B6803F0B0
:102F40000F023B689A4201D0012330E07B681B6886
:102F500003F00403002B08D01849184B9B6823F496
:102F6000E0527B68DB6813438B607B681B6803F06F
:102F70000803002B09D01149104B9B6823F46042D1
:102F80007B681B69DB0013438B6000F01DF8014672
:102F90000A4B9B681B0903F00F03094AD35C21FA13
:102FA00003F3084A13600020FDF71CFB00231846BA
:102FB0001037BD4680BD00BF003C024000380240D3
:102FC000FCAE0008380A00202DE9F04F8FB000AFAA
:102FD0000023FB6200237B630023BB6200233B636F
:102FE000624B9B6803F00C03042B07D0082B08D01E
:102FF000002B40F0B2805E4B3B63B1E05D4B3B6326
:10300000AEE05A4B5B6803F03F03FB62574B5B68D3
:1030100003F48003002B4ED0544B5B689B094FF0A8
:10302000000440F2FF114FF0000201EA030102EA3E
:1030300004020B46144660017862786A40EAD36065
:1030400078625B013B62D7E908345B1A64EB0204E7
:103050004FEA841949EA93694FEA8318B8EB0308E9
:1030600069EB04094FEAC903FB61FB6943EA587342
:10307000FB614FEAC803BB61D7E9068918EB010879
:1030800049EB02094FEA49237B617B6943EAD85344
:103090007B614FEA48233B61D7E9048940464946B2
:1030A000FB6A4FF000041A462346FDF7F1F8034689
:1030B0000C467B6343E02D4B5B689B094FF000049B
:1030C00040F2FF114FF0000201EA030102EA04029C
:1030D0000B4614466001F860F86840EAD360F86077
:1030E0005B01BB60D7E902345B1A64EB0204A60102
:1030F00046EA93669D01ED1A66EB0406F3007B60D9
:103100007B6843EA55737B60EB003B6097E86000A7
:103110006D1846EB02064FEA862B4BEA955B4FEAA9
:10312000852A55465E4628463146FB6A4FF0000424
:103130001A462346FDF7ACF803460C467B630B4B5F
:103140005B681B0C03F0030301335B00BB627A6B0B
:10315000BB6AB2FBF3F33B6302E0054B3B6300BF8A
:103160003B6B18463C37BD46BDE8F08F0038024047
:103170000024F40000127A0080B400AF034B1B68F7
:103180001846BD465DF8047B704700BF380A002032
:1031900080B500AFFFF7F0FF0146054B9B689B0A27
:1031A00003F00703034AD35C21FA03F3184680BDFA
:1031B000003802400CAF000880B586B000AF7860E0
:1031C00000237B6100233B617B681B6803F00103E4
:1031D000002B05D17B681B6803F00403002B35D05E
:1031E000624B00221A60FDF741FA786108E0FDF7B2
:1031F0003DFA02467B69D31A022B01D90323B0E0C2
:103200005B4B1B6803F00063002BF0D158497B68CF
:103210005B689A017B689B681B071343C1F8843085
:10322000524B01221A60FDF721FA786108E0FDF7A0
:103230001DFA02467B69D31A022B01D9032390E0C1
:103240004B4B1B6803F00063002BF0D07B681B68BE
:1032500003F00203002B00F083800023FB60444A4C
:10326000434B1B6C43F080531364414B1B6C03F0C6
:103270008053FB60FB683F4A3E4B1B6843F48073FE
:103280001360FDF7F3F9786108E0FDF7EFF9024606
:103290007B69D31A022B01D9032362E0354B1B68EB
:1032A00003F48073002BF0D0314B1B6F03F4407399
:1032B0003B613B69002B2FD07B68DB6803F44072D5
:1032C0003B699A4228D02A4B1B6F23F440733B6121
:1032D000294B01221A60284B00221A60244A3B69BC
:1032E0001367234B1B6F03F00103002B14D0FDF772
:1032F000BDF978610AE0FDF7B9F902467B69D31A96
:1033000041F28832934201D903232AE0184B1B6F04
:1033100003F00203002BEED07B68DB6803F44073FC
:10332000B3F5407F0DD11249114B9B6823F4F8127D
:103330007B68DB6823F0704323F4407313438B6096
:1033400005E00B4A0A4B9B6823F4F8139360084985
:10335000074B1A6F7B68DB68C3F30B0313430B67E0
:10336000002318461837BD4680BD00BF680047429D
:103370000038024000700040400E474280B487B0E1
:1033800000AF786000237B6100233B610023FB607A
:103390000023BB607B68012B3DD1224B9B6803F46B
:1033A0000003FB60FB68002B04D0012B2FD11E4BC8
:1033B0007B612FE01B4B5B6803F48003B3F5800F48
:1033C00008D1184B5B6803F03F03184AB2FBF3F3D4
:1033D0003B6107E0134B5B6803F03F03144AB2FB09
:1033E000F3F33B610F4BD3F884309B09C3F308031D
:1033F0003A6902FB03F3BB600A4BD3F884301B0F1E
:1034000003F00703BA68B2FBF3F37B6102E0002329
:103410007B6100BF00BF7B6918461C37BD465DF865
:10342000047B7047003802400080BB0000127A0025
:103430000024F40080B582B000AF78607B68002B78
:1034400001D1012355E07B6800229A627B6893F8E2
:103450005130DBB2002B06D17B68002283F850206C
:10346000786805F073FB7B68022283F851207B6843
:103470001B687A681268126822F040021A607B6842
:103480001B687A6851687A68926811437A68D268D2
:1034900011437A68126911437A68526911437A6854
:1034A000926902F4007211437A68D26911437A6812
:1034B000126A11437A68926A0A431A607B681B6831
:1034C0007A689269120C02F004017A68526A0A431F
:1034D0005A607B681B687A681268D26922F40062BD
:1034E000DA617B6800225A657B68012283F85120EB
:1034F000002318460837BD4680BD80B582B000AFB6
:1035000078607B68002B01D101231DE07B6893F874
:103510003930DBB2002B06D17B68002283F83820DB
:10352000786805F045FB7B68022283F839207B68C8
:103530001A687B6804331946104600F07BFB7B68F1
:10354000012283F83920002318460837BD4680BD84
:1035500080B483B000AF78607B68022283F83920A2
:103560007B681B687A681268126842F001021A6070
:103570007B68012283F83920002318460C37BD46AA
:103580005DF8047B704780B483B000AF78607B68DF
:103590001B687A681268D26842F00102DA607B68C0
:1035A0001B687A681268126842F001021A600023F0
:1035B00018460C37BD465DF8047B704780B582B075
:1035C00000AF78607B68002B01D101231DE07B6890
:1035D00093F83930DBB2002B06D17B68002283F8E8
:1035E0003820786805F0B4FB7B68022283F8392024
:1035F0007B681A687B6804331946104600F01AFB92
:103600007B68012283F83920002318460837BD461D
:1036100080BD000080B582B000AF786039607B6803
:103620001B6801223968184600F026FC7B681B687D
:10363000104A934204D07B681B680F4A934201D121
:10364000012300E00023002B07D07B681B687A6809
:103650001268526C42F400425A647B681B687A68B4
:103660001268126842F001021A60002318460837F7
:10367000BD4680BD000001400004014080B582B01D
:1036800000AF78607B681B681B6903F00203022BA4
:1036900022D17B681B68DB6803F00203022B1BD17D
:1036A0007B681B686FF002021A617B6801221A7640
:1036B0007B681B689B6903F00303002B03D07868C9
:1036C00000F099FA05E0786800F08BFA786800F06D
:1036D0009CFA7B6800221A767B681B681B6903F0E2
:1036E0000403042B22D17B681B68DB6803F004030E
:1036F000042B1BD17B681B686FF004021A617B6886
:1037000002221A767B681B689B6903F44073002BC6
:1037100003D0786800F06FFA05E0786800F061FA8D
:10372000786800F072FA7B6800221A767B681B6862
:103730001B6903F00803082B22D17B681B68DB6838
:1037400003F00803082B1BD17B681B686FF008028D
:103750001A617B6804221A767B681B68DB6903F0B8
:103760000303002B03D0786800F045FA05E0786881
:1037700000F037FA786800F048FA7B6800221A7681
:103780007B681B681B6903F01003102B22D17B6838
:103790001B68DB6803F01003102B1BD17B681B68D0
:1037A0006FF010021A617B6808221A767B681B682A
:1037B000DB6903F44073002B03D0786800F01BFA38
:1037C00005E0786800F00DFA786800F01EFA7B6872
:1037D00000221A767B681B681B6903F00103012B2A
:1037E0000ED17B681B68DB6803F00103012B07D156
:1037F0007B681B686FF001021A61786800F0E7F9D6
:103800007B681B681B6903F08003802B0ED17B68EB
:103810001B68DB6803F08003802B07D17B681B6883
:103820006FF080021A61786800F0E7FD7B681B6822
:103830001B6903F04003402B0ED17B681B68DB68DB
:1038400003F04003402B07D17B681B686FF04002F8
:103850001A61786800F0E3F97B681B681B6903F064
:103860002003202B0ED17B681B68DB6803F020034C
:10387000202B07D17B681B686FF020021A617868E3
:1038800000F0B1FD00BF0837BD4680BD80B584B0F3
:1038900000AFF860B9607A60FB6893F83830012BAC
:1038A00001D10223B4E0FB68012283F83820FB68D1
:1038B000022283F839207B680C2B00F29F8001A242
:1038C00052F823F0F9380008FD390008FD390008E6
:1038D000FD39000839390008FD390008FD390008B4
:1038E000FD3900087B390008FD390008FD39000862
:1038F000FD390008BB390008FB681B68B968184629
:1039000000F0DEFAFB681B68FA681268926942F000
:1039100008029A61FB681B68FA681268926922F0D3
:1039200004029A61FB681B68FA6812689169BA68B8
:1039300012690A439A6162E0FB681B68B96818461D
:1039400000F022FAFB681B68FA681268926942F478
:1039500000629A61FB681B68FA681268926922F437
:1039600080629A61FB681B68FA6812689169BA689C
:10397000126912020A439A6141E0FB681B68B96848
:10398000184600F011FBFB681B68FA681268D269E0
:1039900042F00802DA61FB681B68FA681268D269B3
:1039A00022F00402DA61FB681B68FA681268D169C8
:1039B000BA6812690A43DA6121E0FB681B68B968DA
:1039C000184600F069FBFB681B68FA681268D26948
:1039D00042F40062DA61FB681B68FA681268D26917
:1039E00022F48062DA61FB681B68FA681268D169A8
:1039F000BA68126912020A43DA6100E000BFFB688C
:103A0000012283F83920FB68002283F83820002344
:103A100018461037BD4680BD80B584B000AF7860D1
:103A200039600023FB607B6893F83830012B01D1AB
:103A30000223C8E07B68012283F838207B680222D9
:103A400083F839207B681B689B68FB60FB6823F068
:103A50007703FB60FB6823F47F43FB607B681B6894
:103A6000FA689A603B681B68402B77D0402B0ED8D1
:103A7000102B00F08A80102B02D8002B7ED099E00A
:103A8000202B00F08980302B00F08D8092E0702B8D
:103A900016D0702B04D8502B40D0602B4ED089E02C
:103AA000B3F5805F03D0B3F5005F24D082E07B687C
:103AB0001B687A681268926822F007029A6079E0BF
:103AC0007B6818683B6899683B685A683B68DB68A4
:103AD00000F0C9FB7B681B689B68FB60FB6823F0F8
:103AE0007703FB60FB6843F07703FB607B681B6830
:103AF000FA689A605EE07B6818683B6899683B6882
:103B00005A683B68DB6800F0AEFB7B681B687A682C
:103B10001268926842F480429A604BE07B681868B1
:103B20003B6859683B68DB681A4600F015FB7B6808
:103B30001B685021184600F076FB3BE07B68186854
:103B40003B6859683B68DB681A4600F038FB7B68C5
:103B50001B686021184600F066FB2BE07B68186844
:103B60003B6859683B68DB681A4600F0F5FA7B68E9
:103B70001B684021184600F056FB1BE07B681B6861
:103B80000021184600F04FFB14E07B681B681021F1
:103B9000184600F048FB0DE07B681B6820211846A2
:103BA00000F041FB06E07B681B683021184600F0FE
:103BB0003AFB00BF7B68012283F839207B68002232
:103BC00083F83820002318461037BD4680BD80B4E6
:103BD00083B000AF786000BF0C37BD465DF8047B52
:103BE000704780B483B000AF786000BF0C37BD462B
:103BF0005DF8047B704780B483B000AF786000BF8D
:103C00000C37BD465DF8047B704780B483B000AFCD
:103C1000786000BF0C37BD465DF8047B704780B408
:103C200083B000AF786000BF0C37BD465DF8047B01
:103C30007047000080B485B000AF78603960002321
:103C4000FB607B681B68FB607B68444A934213D02F
:103C50007B68B3F1804F0FD07B68414A93420BD011
:103C60007B68404A934207D07B683F4A934203D027
:103C70007B683E4A934201D1012300E00023002BE0
:103C800008D0FB6823F07003FB603B685B68FA6850
:103C90001343FB607B68314A93422BD07B68B3F1BE
:103CA000804F27D07B682E4A934223D07B682D4AD1
:103CB00093421FD07B682C4A93421BD07B682B4ACF
:103CC000934217D07B682A4A934213D07B68294AD3
:103CD00093420FD07B68284A93420BD07B68274AD7
:103CE000934207D07B68264A934203D07B68254ADB
:103CF000934201D1012300E00023002B08D0FB6890
:103D000023F44073FB603B68DB68FA681343FB6095
:103D10007B68FA681A603B689A687B68DA623B687D
:103D20001A687B689A627B680C4A934203D07B686E
:103D30000E4A934201D1012300E00023002B03D05F
:103D40003B681A697B681A637B6801225A6100BF6D
:103D50001437BD465DF8047B704700BF000001408A
:103D60000004004000080040000C00400004014036
:103D7000004001400044014000480140001800405C
:103D8000001C00400020004080B487B000AF786085
:103D900039600023FB6000237B6100233B617B686B
:103DA0001B6A23F010027B681A627B681B6A7B61C6
:103DB0007B685B683B617B689B69FB60FB6823F405
:103DC000E043FB60FB6823F44073FB603B681B68C7
:103DD0001B02FA681343FB607B6923F020037B61BD
:103DE0003B689B681B017A6913437B617B68204AAF
:103DF000934203D07B681F4A934201D1012300E024
:103E00000023002B21D07B6923F080037B613B687A
:103E1000DB681B017A6913437B617B6923F04003F4
:103E20007B613B6923F480633B613B6923F400635E
:103E30003B613B685B699B003A6913433B613B68AC
:103E40009B699B003A6913433B617B683A695A60FE
:103E50007B68FA689A613B685A687B689A637B68FA
:103E60007A691A6200BF1C37BD465DF8047B704753
:103E7000000001400004014080B487B000AFF8604A
:103E8000B9607A6000237B610122BB6802FA03F308
:103E90007B61FB681A6A7B69DB431A40FB681A6224
:103EA000FB681A6A7968BB6801FA03F31A43FB6876
:103EB0001A6200BF1C37BD465DF8047B70470000E6
:103EC00080B487B000AF786039600023FB600023C6
:103ED0007B6100233B617B681B6A23F001027B68E6
:103EE0001A627B681B6A7B617B685B683B617B68ED
:103EF0009B69FB60FB6823F07003FB60FB6823F0A9
:103F00000303FB603B681B68FA681343FB607B6933
:103F100023F002037B613B689B687A6913437B61F2
:103F20007B681F4A934203D07B681E4A934201D1AB
:103F3000012300E00023002B1ED07B6923F008033F
:103F40007B613B68DB687A6913437B617B6923F0A3
:103F500004037B613B6923F480733B613B6923F479
:103F600000733B613B685B693A6913433B613B68A3
:103F70009B693A6913433B617B683A695A607B6885
:103F8000FA689A613B685A687B685A637B687A6909
:103F90001A6200BF1C37BD465DF8047B704700BF46
:103FA000000001400004014080B487B000AF786099
:103FB00039600023FB6000237B6100233B617B6849
:103FC0001B6A23F480727B681A627B681B6A7B61C0
:103FD0007B685B683B617B68DB69FB60FB6823F0A7
:103FE0007003FB60FB6823F00303FB603B681B6806
:103FF000FA681343FB607B6923F400737B613B68C1
:104000009B681B027A6913437B617B68204A934259
:1040100003D07B681F4A934201D1012300E00023B3
:10402000002B21D07B6923F400637B613B68DB6854
:104030001B027A6913437B617B6923F480637B6194
:104040003B6923F480533B613B6923F400533B619C
:104050003B685B691B013A6913433B613B689B69A1
:104060001B013A6913433B617B683A695A607B687C
:10407000FA68DA613B685A687B68DA637B687A6958
:104080001A6200BF1C37BD465DF8047B704700BF55
:10409000000001400004014080B487B000AF7860A8
:1040A000396000233B610023FB6000237B617B6858
:1040B0001B6A23F480527B681A627B681B6AFB6070
:1040C0007B685B687B617B68DB693B613B6923F4F0
:1040D000E0433B613B6923F440733B613B681B68F1
:1040E0001B023A6913433B61FB6823F40053FB60F6
:1040F0003B689B681B03FA681343FB607B68144AA8
:10410000934203D07B68134A934201D1012300E01C
:104110000023002B09D07B6923F480437B613B683B
:104120005B699B017A6913437B617B687A695A609A
:104130007B683A69DA613B685A687B681A647B6815
:10414000FA681A6200BF1C37BD465DF8047B7047F1
:10415000000001400004014080B487B000AFF86067
:10416000B9607A6000237B6100233B61FB681B6AB6
:104170003B61FB681B6A23F00102FB681A62FB6863
:104180009B697B617B6923F0F0037B617B681B018A
:104190007A6913437B613B6923F00A033B613A6907
:1041A000BB6813433B61FB687A699A61FB683A69B3
:1041B0001A6200BF1C37BD465DF8047B704780B4AF
:1041C00087B000AFF860B9607A6000237B6100239C
:1041D0003B61FB681B6A23F01002FB681A62FB68F4
:1041E0009B697B61FB681B6A3B617B6923F47043BD
:1041F0007B617B681B037A6913437B613B6923F016
:10420000A0033B61BB681B013A6913433B61FB6838
:104210007A699A61FB683A691A6200BF1C37BD4629
:104220005DF8047B704780B485B000AF78600B46C2
:104230007B800023FB607B689B68FB60FB6823F04E
:104240007003FB607B8843F007039BB21A46FB6850
:104250001343FB607B68FA689A6000BF1437BD4661
:104260005DF8047B704780B487B000AFF860B96038
:104270007A603B6000237B61FB689B687B617B69A4
:1042800023F47F437B613B681A027B681A43BB6857
:1042900013437A6913437B61FB687A699A6000BFB4
:1042A0001C37BD465DF8047B704780B483B000AF17
:1042B000786039607B6893F83830012B01D1022394
:1042C00032E07B68012283F838207B68022283F881
:1042D00039207B681B687A681268526822F0700285
:1042E0005A607B681B687A68126851683A6812687D
:1042F0000A435A607B681B687A681268926822F0E9
:1043000080029A607B681B687A68126891683A68D4
:1043100052680A439A607B68012283F839207B68DF
:10432000002283F83820002318460C37BD465DF87C
:10433000047B704780B485B000AF7860396000239B
:10434000FB607B6893F83830012B01D1022344E0F5
:104350007B68012283F83820FB6823F0FF023B686A
:10436000DB681343FB60FB6823F440723B689B6887
:104370001343FB60FB6823F480623B685B68134374
:10438000FB60FB6823F400623B681B681343FB601F
:10439000FB6823F480523B681B691343FB60FB6896
:1043A00023F400523B685B691343FB60FB6823F412
:1043B00080423B689B691343FB60FB6823F4004227
:1043C0003B689B691343FB607B681B68FA685A640F
:1043D0007B68002283F83820002318461437BD4636
:1043E0005DF8047B704780B483B000AF786000BF95
:1043F0000C37BD465DF8047B704780B483B000AFD6
:10440000786000BF0C37BD465DF8047B704784B010
:1044100080B582B000AF786007F1140080E80E002C
:10442000BB6A012B20D17B689B6B23F480327B68B5
:104430009A637B68DB6823F4840323F040037A6883
:10444000D3607B68DB6823F440127B68DA607B6CA6
:10445000012B05D17B68DB6843F480127B68DA604E
:10446000786801F0C5F90CE07B68DB6843F0400236
:104470007B68DA60786801F0BBF97B684FF48032C2
:104480009A633B6A012B0BD17B689B6843F0060261
:104490007B689A607B689B6843F020027B689A6027
:1044A000002318460837BD46BDE8804004B0704779
:1044B00080B483B000AF78607B689B6843F00102F2
:1044C0007B689A60002318460C37BD465DF8047B74
:1044D000704780B483B000AF78607B689B6823F03E
:1044E00001027B689A60002318460C37BD465DF8D0
:1044F000047B704780B582B000AF78600B46FB70DC
:104500007B68DB6823F0C0427B68DA60FB78012BB4
:1045100006D17B68DB6843F000527B68DA6008E014
:10452000FB78002B05D17B68DB6843F080427B6819
:10453000DA603220FCF7A6F8002318460837BD469B
:1045400080BD000084B080B584B000AF786007F112
:104550001C0080E80E000023FB607B6C002B06D162
:104560007B689B6B43F400127B689A6305E07B6871
:104570009B6B43F400227B689A637B6803F560635E
:104580001A46002313607B6803F500631A467B68B4
:1045900003F500631B6813603B6B012B0CD17B6A36
:1045A000002B04D10021786800F046F908E00121D1
:1045B000786800F041F903E00321786800F03CF9E5
:1045C0001021786800F0F0F8786800F013F97B6843
:1045D00003F500631A46002313617B6803F500634B
:1045E0001A46002353617B6803F500631A464FF0B7
:1045F000FF3393617B6803F500631A460023D361A0
:104600000023FB6034E0FB685A017B68134403F528
:1046100010631B6803F00043B3F1004F0AD1FB683D
:104620005A017B68134403F510631A464FF0904318
:10463000136008E0FB685A017B68134403F51063BC
:104640001A4600231360FB685A017B68134403F584
:1046500010631A4600231361FB685A017B681344F8
:1046600003F510631A46FF239360FB680133FB6078
:10467000FA69FB689A42C6D80023FB6034E0FB6805
:104680005A017B68134403F530631B6803F0004351
:10469000B3F1004F0AD1FB685A017B68134403F55C
:1046A00030631A464FF09043136008E0FB685A01EC
:1046B0007B68134403F530631A4600231360FB68DC
:1046C0005A017B68134403F530631A4600231361D3
:1046D000FB685A017B68134403F530631A46FF23D5
:1046E0009360FB680133FB60FA69FB689A42C6D8A5
:1046F0007B6803F500631A467B6803F500631B695A
:1047000023F480731361BB6A012B17D17B6803F517
:1047100000631A46224B13637B6803F500631A4655
:104720007B6803F500631B6B43F4803343F00303A2
:1047300013637B6803F500631B6BFB607B680022DF
:104740009A617B686FF080425A61BB6A002B05D189
:104750007B689B6943F010027B689A617B689A6969
:10476000104B13437A6893617B6B002B05D07B68F9
:104770009B6943F008027B689A617B6C012B07D12F
:104780007B689B6943F0804343F004037A6893613C
:10479000002318461037BD46BDE8804004B070477E
:1047A0000001800000383C8080B485B000AF7860A4
:1047B00039600023FB603B689B0143F020027B686B
:1047C0001A61FB680133FB60FB68094A934201D917
:1047D000032306E07B681B6903F02003202BF0D045
:1047E000002318461437BD465DF8047B704700BFB0
:1047F000400D030080B485B000AF78600023FB60FB
:104800007B6810221A61FB680133FB60FB68094A70
:10481000934201D9032306E07B681B6903F0100370
:10482000102BF0D0002318461437BD465DF8047BEA
:10483000704700BF400D030080B483B000AF7860C4
:104840000B46FB707B6803F5006319467B6803F534
:1048500000631A68FB7813430B60002318460C377B
:10486000BD465DF8047B704780B485B000AF7860CA
:104870000023FB737B6803F500639B6803F006036A
:10488000002B02D10023FB731CE07B6803F500635F
:104890009B6803F00603022B07D07B6803F50063D7
:1048A0009B6803F00603062B02D10323FB7309E088
:1048B0007B6803F500639B6803F00603042B01D1BA
:1048C0000223FB73FB7B18461437BD465DF8047B5F
:1048D000704780B483B000AF786039603B685B7824
:1048E000012B3ED17B6803F5006319467B6803F515
:1048F0000063DA693B681B781846012383409BB24A
:104900001343CB613B681B785A017B68134403F562
:1049100010631B6803F40043002B5CD13B681B78D9
:104920005A017B68134403F5106318463B681B78F3
:104930005A017B68134403F510631A683B689B684F
:10494000C3F30A033968C97889040B4339680978C5
:1049500089050B43134343F0805343F40043036042
:1049600039E07B6803F5006319467B6803F5006353
:10497000DA693B681B781846012383401B04134304
:10498000CB613B681B785A017B68134403F53063A5
:104990001B6803F40043002B1DD13B681B785A01B0
:1049A0007B68134403F5306318463B681B785A0153
:1049B0007B68134403F530631A683B689B68C3F354
:1049C0000A033968C97889040B43134343F08053C1
:1049D00043F400430360002318460C37BD465DF8DE
:1049E000047B704780B584B000AF786039600023E5
:1049F000FB603B685B78012B54D13B681B785A0104
:104A00007B68134403F5106319463B681B785A0111
:104A10007B68134403F510631B6823F400430B60A9
:104A20003B681B785A017B68134403F510631A46F0
:104A30004FF0006313603B681B785A017B68134496
:104A400003F510631A464FF080431360FB6801338F
:104A5000FB60FB68434A934201D903237DE03B6836
:104A60001B785A017B68134403F510639B6803F0BD
:104A70008043B3F1804FE9D010217868FFF794FEAE
:104A80007B6803F5006319467B6803F50063DA6908
:104A90003B681B781846012383409BB2DB431340DD
:104AA000CB6159E03B681B785A017B68134403F5DE
:104AB000306319463B681B785A017B68134403F541
:104AC00030631B6823F400430B603B681B785A017A
:104AD0007B68134403F530631A464FF0006313609C
:104AE0003B681B785A017B68134403F530631A4610
:104AF0004FF080431360FB680133FB60FB68194A89
:104B0000934201D9032328E03B681B785A017B6854
:104B1000134403F530639B6803F01003102BEAD0B5
:104B20007B6803F500631A467B6803F500635B68E6
:104B300043F4806353607B6803F5006319467B6828
:104B400003F50063DA693B681B781846012383404C
:104B50001B04DB431340CB61002318461037BD46CE
:104B600080BD00BF400D030080B588B002AFF86083
:104B7000B9601346FB710023FB82BB685B78012B95
:104B800040F04681BB685B69002B3BD1BB681B785A
:104B90005A01FB68134403F510631946BB681B7880
:104BA0005A01FB68134403F510631B6923F0FF539C
:104BB00023F4C0130B61BB681B785A01FB681344D4
:104BC00003F510631946BB681B785A01FB68134450
:104BD00003F510631B6943F400230B61BB681B786A
:104BE0005A01FB68134403F510631946BB681B7830
:104BF0005A01FB68134403F510631B69DB0CDB04EB
:104C00000B6186E0BB681B785A01FB68134403F50F
:104C100010631946BB681B785A01FB68134403F5FF
:104C200010631B69DB0CDB040B61BB681B785A014A
:104C3000FB68134403F510631946BB681B785A01DF
:104C4000FB68134403F510631B6923F0FF5323F43F
:104C5000C0130B61BB681B785A01FB68134403F552
:104C600010631846BB681B785A01FB68134403F5B0
:104C700010631A69BB685969BB689B680B44591E6D
:104C8000BB689B68B1FBF3F3D9048C4B0B40134317
:104C90000361BB681B785A01FB68134403F510637A
:104CA0001946BB681B785A01FB68134403F510636F
:104CB0001A69BB685B69C3F3120313430B61BB68DA
:104CC000DB78012B25D1BB681B785A01FB681344A4
:104CD00003F510631946BB681B785A01FB6813443F
:104CE00003F510631B6923F0C0430B61BB681B789D
:104CF0005A01FB68134403F510631946BB681B781F
:104D00005A01FB68134403F510631B6943F0005319
:104D10000B61FB79012B0BD1BB681B785A01FB6837
:104D2000134403F510631A46BB681B69536116E010
:104D3000BB68DB78012B12D0BB685B69002B0ED0FF
:104D4000FB6803F500631946FB6803F500635A6BC3
:104D5000BB681B7818460123834013434B63BB6831
:104D6000DB78012B2ED1FB6803F500639B6803F40D
:104D70008073002B13D1BB681B785A01FB68134466
:104D800003F510631946BB681B785A01FB6813448E
:104D900003F510631B6843F000530B6012E0BB681F
:104DA0001B785A01FB68134403F510631946BB686E
:104DB0001B785A01FB68134403F510631B6843F02A
:104DC00080530B60BB681B785A01FB68134403F5E2
:104DD00010631946BB681B785A01FB68134403F53E
:104DE00010631B6843F004430B60BB68DB78012B46
:104DF00040F0F580BB68D968BB681A78BB685B690E
:104E000098B2FB7900930346F86800F04EFAE6E0AA
:104E1000BB681B785A01FB68134403F530631946DD
:104E2000BB681B785A01FB68134403F530631B69A8
:104E3000DB0CDB040B61BB681B785A01FB68134475
:104E400003F530631946BB681B785A01FB681344AD
:104E500003F530631B6923F0FF5323F4C0130B6188
:104E6000BB685B69002B2BD1BB681B785A01FB68C0
:104E7000134403F530631946BB681B785A01FB687D
:104E8000134403F530631A69BB689B68C3F31203CC
:104E900013430B61BB681B785A01FB68134403F58D
:104EA00030631946BB681B785A01FB68134403F54D
:104EB00030631B6943F400230B613CE00000F81FE2
:104EC000BB685A69BB689B6813445A1EBB689B68E1
:104ED000B2FBF3F3FB82BB681B785A01FB681344F7
:104EE00003F530631946BB681B785A01FB6813440D
:104EF00003F530631A69FB8ADB0418463A4B03401A
:104F000013430B61BB681B785A01FB68134403F51C
:104F100030631846BB681B785A01FB68134403F5DD
:104F200030631A69BB689B68F98A01FB03F3C3F31A
:104F3000120313430361FB79012B0AD1BB681B7871
:104F40005A01FB68134403F530631A46BB68DB68FB
:104F50005361BB68DB78012B2ED1FB6803F500633E
:104F60009B6803F48073002B13D1BB681B785A0134
:104F7000FB68134403F530631946BB681B785A017C
:104F8000FB68134403F530631B6843F000530B6068
:104F900012E0BB681B785A01FB68134403F53063C9
:104FA0001946BB681B785A01FB68134403F530634C
:104FB0001B6843F080530B60BB681B785A01FB6889
:104FC000134403F530631946BB681B785A01FB682C
:104FD000134403F530631B6843F004430B60002364
:104FE00018461837BD4680BD0000F81F80B485B054
:104FF00000AFF860B9601346FB71BB685B78012BAA
:1050000040F0D280BB685B69002B3BD1BB681B784A
:105010005A01FB68134403F510631946BB681B78FB
:105020005A01FB68134403F510631B6923F0FF5317
:1050300023F4C0130B61BB681B785A01FB6813444F
:1050400003F510631946BB681B785A01FB681344CB
:1050500003F510631B6943F400230B61BB681B78E5
:105060005A01FB68134403F510631946BB681B78AB
:105070005A01FB68134403F510631B69DB0CDB0466
:105080000B615AE0BB681B785A01FB68134403F5B7
:1050900010631946BB681B785A01FB68134403F57B
:1050A00010631B69DB0CDB040B61BB681B785A01C6
:1050B000FB68134403F510631946BB681B785A015B
:1050C000FB68134403F510631B6923F0FF5323F4BB
:1050D000C0130B61BB685A69BB689B689A4203D9CD
:1050E000BB689A68BB685A61BB681B785A01FB6849
:1050F000134403F510631946BB681B785A01FB681B
:10510000134403F510631B6943F400230B61BB6870
:105110001B785A01FB68134403F510631946BB68FA
:105120001B785A01FB68134403F510631A69BB68C6
:105130005B69C3F3120313430B61BB681B785A010D
:10514000FB68134403F510631946BB681B785A01CA
:10515000FB68134403F510631B6843F004430B60C2
:10516000FB79012B0BD1BB681B785A01FB681344F8
:1051700003F510631A46BB681B6953618EE0BB6878
:105180005B69002B00F08A80FB6803F50063194619
:10519000FB6803F500635A6BBB681B781846012354
:1051A000834013434B6379E0BB681B785A01FB686B
:1051B000134403F530631946BB681B785A01FB683A
:1051C000134403F530631B69DB0CDB040B61BB6824
:1051D0001B785A01FB68134403F530631946BB681A
:1051E0001B785A01FB68134403F530631B6923F0F5
:1051F000FF5323F4C0130B61BB685B69002B03D022
:10520000BB689A68BB685A61BB681B785A01FB6827
:10521000134403F530631946BB681B785A01FB68D9
:10522000134403F530631B6943F400230B61BB682F
:105230001B785A01FB68134403F530631946BB68B9
:105240001B785A01FB68134403F530631A69BB6885
:105250009B68C3F3120313430B61FB79012B0AD143
:10526000BB681B785A01FB68134403F530631A4688
:10527000BB68DB685361BB681B785A01FB68134449
:1052800003F530631946BB681B785A01FB68134469
:1052900003F530631B6843F004430B60002318469A
:1052A0001437BD465DF8047B704780B487B000AF0B
:1052B000F860B96011461A460B46FB711346BB8075
:1052C00000233B6100237B6197F82030002B1AD12B
:1052D000BB8803339B083B6100237B610FE0FB79B4
:1052E0001A03FB68134403F580531A46BB681B6816
:1052F00013607B6901337B61BB680433BB607A69EF
:105300003B699A42EBD3002318461C37BD465DF833
:10531000047B704780B487B000AFF860B960134673
:10532000FB8000237B61FB8803339B083B610023E8
:105330007B610BE0FB6803F580531A68BB681A6059
:105340007B6901337B61BB680433BB607A693B696D
:105350009A42EFD3BB6818461C37BD465DF8047B04
:10536000704780B483B000AF786039603B685B7889
:10537000012B30D13B681B785A017B68134403F53D
:1053800010631B68002B12DB3B681B785A017B689B
:10539000134403F5106319463B681B785A017B6878
:1053A000134403F510631B6823F080430B603B68D4
:1053B0001B785A017B68134403F5106319463B6858
:1053C0001B785A017B68134403F510631B6843F490
:1053D00000130B602FE03B681B785A017B68134475
:1053E00003F530631B68002B12DB3B681B785A0106
:1053F0007B68134403F5306319463B681B785A01F8
:105400007B68134403F530631B6823F080430B6013
:105410003B681B785A017B68134403F530631946D7
:105420003B681B785A017B68134403F530631B68A3
:1054300043F400130B60002318460C37BD465DF89B
:10544000047B704780B483B000AF786039603B68FC
:105450005B78012B2ED13B681B785A017B68134483
:1054600003F5106319463B681B785A017B681344A7
:1054700003F510631B6823F400130B603B68DB78B3
:10548000032B03D03B68DB78022B41D13B681B78B0
:105490005A017B68134403F5106319463B681B7877
:1054A0005A017B68134403F510631B6843F0805373
:1054B0000B602DE03B681B785A017B68134403F5B1
:1054C000306319463B681B785A017B68134403F527
:1054D00030631B6823F400130B603B68DB78032BFD
:1054E00003D03B68DB78022B12D13B681B785A0152
:1054F0007B68134403F5306319463B681B785A01F7
:105500007B68134403F530631B6843F080530B60E2
:10551000002318460C37BD465DF8047B704780B405
:1055200083B000AF78600B46FB707B6803F50063C7
:105530001A467B6803F500631B6823F4FE6313605F
:105540007B6803F5006319467B6803F500631A68FE
:10555000FB781B0103F4FE6313430B600023184622
:105560000C37BD465DF8047B704780B582B000AF54
:1055700078607B6803F500631A467B6803F5006377
:105580005B6823F0020353600320FBF77BF80023E2
:1055900018460837BD4680BD80B582B000AF786040
:1055A0007B6803F500631A467B6803F500635B685C
:1055B00043F0020353600320FBF764F8002318460E
:1055C0000837BD4680BD80B485B000AF7860002349
:1055D000FB607B685B69FB607B689B69FA681340D2
:1055E000FB60FB6818461437BD465DF8047B7047C6
:1055F00080B485B000AF78607B6803F500639B6979
:10560000FB607B6803F50063DB69FA681340FB60AD
:10561000FB681B0C18461437BD465DF8047B7047C9
:1056200080B485B000AF78607B6803F500639B6948
:10563000FB607B6803F50063DB69FA681340FB607D
:10564000FB689BB218461437BD465DF8047B704773
:1056500080B485B000AF78600B46FB70FB785A01D0
:105660007B68134403F530639B68FB607B6803F53C
:1056700000635B69FA681340FB60FB6818461437E7
:10568000BD465DF8047B704780B487B000AF78609A
:105690000B46FB707B6803F500631B697B617B68CD
:1056A00003F500635B6B3B61FB783A6922FA03F315
:1056B000DB01DBB27A6913437B61FB785A017B68BB
:1056C000134403F510639A687B691340FB60FB6821
:1056D00018461C37BD465DF8047B704780B483B024
:1056E00000AF78607B685B6903F0010318460C37F4
:1056F000BD465DF8047B704780B483B000AF78602E
:105700007B6803F510631A467B6803F510631B681A
:1057100023F4FF6323F0070313607B6803F5006342
:105720009B6803F00603042B0AD17B6803F5106322
:105730001A467B6803F510631B6843F0030313608C
:105740007B6803F500631A467B6803F500635B68BA
:1057500043F480735360002318460C37BD465DF850
:10576000047B704780B485B000AFF8600B467A6068
:10577000FB72FB6803F530631A4600231361FB6874
:1057800003F530631A46FB6803F530631B6943F485
:1057900000231361FB6803F530631A46FB6803F5C9
:1057A00030631B6943F018031361FB6803F5306332
:1057B0001A46FB6803F530631B6943F0C04313616D
:1057C000FB7A012B0CD1FB6803F530631A467B682A
:1057D0005361FB6803F530631A464FF08023136072
:1057E000002318461437BD465DF8047B704700005F
:1057F00080B485B000AF78600023FB60FB680133A4
:10580000FB60FB68134A934201D903231BE07B68CA
:105810001B69002BF2DA0023FB607B681B6943F0F5
:1058200001027B681A61FB680133FB60FB68094A6F
:10583000934201D9032306E07B681B6903F001034F
:10584000012BF0D0002318461437BD465DF8047BC9
:10585000704700BF400D030080B584B000AF786092
:105860000B46FB700023FB737B681B7C002B0ED167
:105870004FF4007302228121786803F063FE4FF435
:10588000007302220121786803F05CFE0BE04023E4
:1058900002228121786803F055FE40230222012173
:1058A000786803F04FFE082303228221786803F012
:1058B00049FE4FF4077004F011FA03461A467B685C
:1058C000C3F818227B68D3F81832002B02D10123C9
:1058D000FB7326E07B68D3F81832BB607B68D3F893
:1058E0001C321B689847BB680022C3F81422BB68AF
:1058F0000022C3F818227B681B7C002B09D1BB68EF
:10590000D3F804224FF400730121786803F096FF66
:1059100007E0BB68D3F8042240230121786803F034
:105920008DFFFB7B18461037BD4680BD80B584B027
:1059300000AF78600B46FB700023FB738121786811
:1059400003F03EFE0121786803F03AFE8221786878
:1059500003F036FE7B68D3F81832002B0ED07B683C
:10596000D3F81C325B6898477B68D3F81832184626
:1059700004F0BCF97B680022C3F81822FB7B1846B0
:105980001037BD4680BD000080B584B000AF7860A0
:1059900039607B68D3F81832FB603B681B7803F0F2
:1059A0006003002B3AD0202B00D043E03B68DB881B
:1059B000002B29D03B681B785BB2002B11DA7B6887
:1059C000D3F81C329B683A685078F9683A68D288F4
:1059D0009847F9683B68DB881A46786801F070F8E8
:1059E00029E03B685A78FB6883F800223B68DB8833
:1059F000DAB2FB6883F80122F9683B68DB881A4653
:105A0000786801F08BF816E07B68D3F81C329B684D
:105A10003A6850780022396898470CE03B685B7818
:105A20000A2B01D00B2B05E001220549786801F013
:105A300047F800BF00BF002318461037BD4680BDA1
:105A4000000B002080B485B000AF78600B46FB707F
:105A50007B68D3F81832FB607B68D3F81832002BD0
:105A600005D0FB680022C3F81422002300E00223C3
:105A700018461437BD465DF8047B704780B584B086
:105A800000AF78600B46FB707B68D3F81832FB6080
:105A9000FB781946786803F00BFF0246FB68C3F8F1
:105AA0000C227B68D3F81832002B0DD07B68D3F81A
:105AB0001C32DB68FA68D2F80402FA6802F5037255
:105AC00011469847002300E0022318461037BD46D0
:105AD00080BD80B584B000AF78607B68D3F81832A1
